{
  "contractName": "Donation",
  "abi": [
    {
      "inputs": [],
      "stateMutability": "nonpayable",
      "type": "constructor"
    },
    {
      "inputs": [
        {
          "internalType": "uint256",
          "name": "",
          "type": "uint256"
        }
      ],
      "name": "beneficiaries",
      "outputs": [
        {
          "internalType": "address payable",
          "name": "beneficiary_address",
          "type": "address"
        },
        {
          "internalType": "string",
          "name": "name",
          "type": "string"
        },
        {
          "internalType": "uint256",
          "name": "id",
          "type": "uint256"
        }
      ],
      "stateMutability": "view",
      "type": "function"
    },
    {
      "inputs": [
        {
          "internalType": "uint256",
          "name": "",
          "type": "uint256"
        }
      ],
      "name": "donors",
      "outputs": [
        {
          "internalType": "address payable",
          "name": "donor_address",
          "type": "address"
        },
        {
          "internalType": "string",
          "name": "name",
          "type": "string"
        },
        {
          "internalType": "uint256",
          "name": "id",
          "type": "uint256"
        }
      ],
      "stateMutability": "view",
      "type": "function"
    },
    {
      "inputs": [
        {
          "internalType": "string",
          "name": "_name",
          "type": "string"
        }
      ],
      "name": "register_donor",
      "outputs": [],
      "stateMutability": "nonpayable",
      "type": "function"
    },
    {
      "inputs": [
        {
          "internalType": "string",
          "name": "_name",
          "type": "string"
        }
      ],
      "name": "register_beneficiary",
      "outputs": [],
      "stateMutability": "nonpayable",
      "type": "function"
    },
    {
      "inputs": [
        {
          "internalType": "uint256",
          "name": "_beneficiary_id",
          "type": "uint256"
        }
      ],
      "name": "donate",
      "outputs": [],
      "stateMutability": "payable",
      "type": "function"
    },
    {
      "inputs": [
        {
          "internalType": "uint256",
          "name": "_beneficiary_id",
          "type": "uint256"
        }
      ],
      "name": "totalDonation",
      "outputs": [
        {
          "internalType": "uint256",
          "name": "",
          "type": "uint256"
        }
      ],
      "stateMutability": "view",
      "type": "function"
    }
  ],
  "bytecode": "0x608060405234801561001057600080fd5b50600080819055506000600181905550610b728061002f6000396000f3fe6080604052600436106100555760003560e01c8063372a78381461005a5780634abfa163146100975780635fa3decc146100d65780637bd56f98146100ff578063efeb5e5814610128578063f14faf6f14610167575b600080fd5b34801561006657600080fd5b50610081600480360381019061007c91906107a6565b610183565b60405161008e91906108a7565b60405180910390f35b3480156100a357600080fd5b506100be60048036038101906100b991906107a6565b61022a565b6040516100cd93929190610849565b60405180910390f35b3480156100e257600080fd5b506100fd60048036038101906100f89190610765565b6102fc565b005b34801561010b57600080fd5b5061012660048036038101906101219190610765565b6103d0565b005b34801561013457600080fd5b5061014f600480360381019061014a91906107a6565b6104a2565b60405161015e93929190610849565b60405180910390f35b610181600480360381019061017c91906107a6565b610574565b005b6000808211801561019657506001548211155b6101d5576040517f08c379a00000000000000000000000000000000000000000000000000000000081526004016101cc90610887565b60405180910390fd5b6003600083815260200190815260200160002060000160009054906101000a900473ffffffffffffffffffffffffffffffffffffffff1673ffffffffffffffffffffffffffffffffffffffff16319050919050565b60026020528060005260406000206000915090508060000160009054906101000a900473ffffffffffffffffffffffffffffffffffffffff1690806001018054610273906109b2565b80601f016020809104026020016040519081016040528092919081815260200182805461029f906109b2565b80156102ec5780601f106102c1576101008083540402835291602001916102ec565b820191906000526020600020905b8154815290600101906020018083116102cf57829003601f168201915b5050505050908060020154905083565b6001600081548092919061030f90610a15565b919050555060405180606001604052803373ffffffffffffffffffffffffffffffffffffffff16815260200182815260200160015481525060036000600154815260200190815260200160002060008201518160000160006101000a81548173ffffffffffffffffffffffffffffffffffffffff021916908373ffffffffffffffffffffffffffffffffffffffff16021790555060208201518160010190805190602001906103bf929190610645565b506040820151816002015590505050565b6000808154809291906103e290610a15565b919050555060405180606001604052803373ffffffffffffffffffffffffffffffffffffffff168152602001828152602001600054815250600260008054815260200190815260200160002060008201518160000160006101000a81548173ffffffffffffffffffffffffffffffffffffffff021916908373ffffffffffffffffffffffffffffffffffffffff1602179055506020820151816001019080519060200190610491929190610645565b506040820151816002015590505050565b60036020528060005260406000206000915090508060000160009054906101000a900473ffffffffffffffffffffffffffffffffffffffff16908060010180546104eb906109b2565b80601f0160208091040260200160405190810160405280929190818152602001828054610517906109b2565b80156105645780601f1061053957610100808354040283529160200191610564565b820191906000526020600020905b81548152906001019060200180831161054757829003601f168201915b5050505050908060020154905083565b60008111801561058657506001548111155b6105c5576040517f08c379a00000000000000000000000000000000000000000000000000000000081526004016105bc90610887565b60405180910390fd5b6003600082815260200190815260200160002060000160009054906101000a900473ffffffffffffffffffffffffffffffffffffffff1673ffffffffffffffffffffffffffffffffffffffff166108fc349081150290604051600060405180830381858888f19350505050158015610641573d6000803e3d6000fd5b5050565b828054610651906109b2565b90600052602060002090601f01602090048101928261067357600085556106ba565b82601f1061068c57805160ff19168380011785556106ba565b828001600101855582156106ba579182015b828111156106b957825182559160200191906001019061069e565b5b5090506106c791906106cb565b5090565b5b808211156106e45760008160009055506001016106cc565b5090565b60006106fb6106f6846108e7565b6108c2565b90508281526020810184848401111561071357600080fd5b61071e848285610970565b509392505050565b600082601f83011261073757600080fd5b81356107478482602086016106e8565b91505092915050565b60008135905061075f81610b25565b92915050565b60006020828403121561077757600080fd5b600082013567ffffffffffffffff81111561079157600080fd5b61079d84828501610726565b91505092915050565b6000602082840312156107b857600080fd5b60006107c684828501610750565b91505092915050565b6107d881610934565b82525050565b60006107e982610918565b6107f38185610923565b935061080381856020860161097f565b61080c81610aeb565b840191505092915050565b6000610824601983610923565b915061082f82610afc565b602082019050919050565b61084381610966565b82525050565b600060608201905061085e60008301866107cf565b818103602083015261087081856107de565b905061087f604083018461083a565b949350505050565b600060208201905081810360008301526108a081610817565b9050919050565b60006020820190506108bc600083018461083a565b92915050565b60006108cc6108dd565b90506108d882826109e4565b919050565b6000604051905090565b600067ffffffffffffffff82111561090257610901610abc565b5b61090b82610aeb565b9050602081019050919050565b600081519050919050565b600082825260208201905092915050565b600061093f82610946565b9050919050565b600073ffffffffffffffffffffffffffffffffffffffff82169050919050565b6000819050919050565b82818337600083830152505050565b60005b8381101561099d578082015181840152602081019050610982565b838111156109ac576000848401525b50505050565b600060028204905060018216806109ca57607f821691505b602082108114156109de576109dd610a8d565b5b50919050565b6109ed82610aeb565b810181811067ffffffffffffffff82111715610a0c57610a0b610abc565b5b80604052505050565b6000610a2082610966565b91507fffffffffffffffffffffffffffffffffffffffffffffffffffffffffffffffff821415610a5357610a52610a5e565b5b600182019050919050565b7f4e487b7100000000000000000000000000000000000000000000000000000000600052601160045260246000fd5b7f4e487b7100000000000000000000000000000000000000000000000000000000600052602260045260246000fd5b7f4e487b7100000000000000000000000000000000000000000000000000000000600052604160045260246000fd5b6000601f19601f8301169050919050565b7f42656e656669636961727920646f65736e277420657869737400000000000000600082015250565b610b2e81610966565b8114610b3957600080fd5b5056fea2646970667358221220708dd84ba3b14b6c15ffaa2cee889e0e8b10d146467524d306dd33c764fc810c64736f6c63430008040033",
  "immutableReferences": {},
  "source": "// SPDX-License-Identifier: MIT\r\npragma solidity ^0.8.4;\r\n\r\ncontract Donation {\r\n\r\n    uint donor_id;\r\n    uint beneficiary_id;\r\n\r\n    constructor() {\r\n        donor_id = 0;\r\n        beneficiary_id = 0;\r\n    }\r\n\r\n    struct Beneficiary {\r\n        address payable beneficiary_address;\r\n        string name;\r\n        uint id;\r\n    }\r\n\r\n    struct Donor {\r\n        address payable donor_address;\r\n        string name;\r\n        uint id;\r\n    }\r\n\r\n    mapping(uint => Donor) public donors;\r\n    mapping(uint => Beneficiary) public beneficiaries;\r\n\r\n    function register_donor(string memory _name) external {\r\n        donor_id++;\r\n        donors[donor_id] = Donor(\r\n            payable(msg.sender),\r\n            _name,\r\n            donor_id\r\n        );\r\n    }\r\n\r\n    function register_beneficiary(string memory _name) external {\r\n        beneficiary_id++;\r\n        beneficiaries[beneficiary_id] = Beneficiary(\r\n            payable(msg.sender),\r\n            _name,\r\n            beneficiary_id\r\n        );\r\n    }\r\n\r\n    function donate(uint _beneficiary_id) external payable {\r\n        require(_beneficiary_id > 0 && _beneficiary_id <= beneficiary_id, \"Beneficiary doesn't exist\");\r\n        beneficiaries[_beneficiary_id].beneficiary_address.transfer(msg.value);\r\n    }\r\n\r\n    function totalDonation(uint _beneficiary_id) public view returns (uint) {\r\n        require(_beneficiary_id > 0 && _beneficiary_id <= beneficiary_id, \"Beneficiary doesn't exist\");\r\n        return beneficiaries[_beneficiary_id].beneficiary_address.balance;\r\n    }\r\n}",
  "sourcePath": "G:\\Blockchain Dev\\Decentralized Donation Application\\src\\backend\\contracts\\Donation.sol",
  "compiler": {
    "name": "solc",
    "version": "0.8.4+commit.c7e474f2.Emscripten.clang"
  },
  "schemaVersion": "3.4.7",
  "updatedAt": "2022-07-19T11:10:12.301Z",
  "devdoc": {
    "kind": "dev",
    "methods": {},
    "version": 1
  },
  "userdoc": {
    "kind": "user",
    "methods": {},
    "version": 1
  }
}