{
  "contractName": "Donation",
  "abi": [
    {
      "inputs": [],
      "stateMutability": "nonpayable",
      "type": "constructor"
    },
    {
      "inputs": [
        {
          "internalType": "uint256",
          "name": "",
          "type": "uint256"
        }
      ],
      "name": "beneficiaries",
      "outputs": [
        {
          "internalType": "address payable",
          "name": "beneficiary_address",
          "type": "address"
        },
        {
          "internalType": "string",
          "name": "name",
          "type": "string"
        },
        {
          "internalType": "uint256",
          "name": "id",
          "type": "uint256"
        }
      ],
      "stateMutability": "view",
      "type": "function"
    },
    {
      "inputs": [
        {
          "internalType": "uint256",
          "name": "",
          "type": "uint256"
        }
      ],
      "name": "donors",
      "outputs": [
        {
          "internalType": "address payable",
          "name": "donor_address",
          "type": "address"
        },
        {
          "internalType": "string",
          "name": "name",
          "type": "string"
        },
        {
          "internalType": "uint256",
          "name": "id",
          "type": "uint256"
        }
      ],
      "stateMutability": "view",
      "type": "function"
    },
    {
      "inputs": [],
      "name": "getDonors",
      "outputs": [
        {
          "internalType": "uint256",
          "name": "",
          "type": "uint256"
        }
      ],
      "stateMutability": "view",
      "type": "function"
    },
    {
      "inputs": [],
      "name": "getBeneficiaries",
      "outputs": [
        {
          "internalType": "uint256",
          "name": "",
          "type": "uint256"
        }
      ],
      "stateMutability": "view",
      "type": "function"
    },
    {
      "inputs": [
        {
          "internalType": "string",
          "name": "_name",
          "type": "string"
        }
      ],
      "name": "register_donor",
      "outputs": [],
      "stateMutability": "nonpayable",
      "type": "function"
    },
    {
      "inputs": [
        {
          "internalType": "string",
          "name": "_name",
          "type": "string"
        }
      ],
      "name": "register_beneficiary",
      "outputs": [],
      "stateMutability": "nonpayable",
      "type": "function"
    },
    {
      "inputs": [
        {
          "internalType": "uint256",
          "name": "_beneficiary_id",
          "type": "uint256"
        }
      ],
      "name": "donate",
      "outputs": [],
      "stateMutability": "payable",
      "type": "function"
    },
    {
      "inputs": [
        {
          "internalType": "uint256",
          "name": "_beneficiary_id",
          "type": "uint256"
        }
      ],
      "name": "totalDonation",
      "outputs": [
        {
          "internalType": "uint256",
          "name": "",
          "type": "uint256"
        }
      ],
      "stateMutability": "view",
      "type": "function"
    }
  ],
  "bytecode": "0x608060405234801561001057600080fd5b50600080819055506000600181905550610c018061002f6000396000f3fe60806040526004361061007b5760003560e01c8063913b722c1161004e578063913b722c1461014e57806396f300d414610179578063efeb5e58146101a4578063f14faf6f146101e35761007b565b8063372a7838146100805780634abfa163146100bd5780635fa3decc146100fc5780637bd56f9814610125575b600080fd5b34801561008c57600080fd5b506100a760048036038101906100a29190610835565b6101ff565b6040516100b49190610936565b60405180910390f35b3480156100c957600080fd5b506100e460048036038101906100df9190610835565b6102a6565b6040516100f3939291906108d8565b60405180910390f35b34801561010857600080fd5b50610123600480360381019061011e91906107f4565b610378565b005b34801561013157600080fd5b5061014c600480360381019061014791906107f4565b61044c565b005b34801561015a57600080fd5b5061016361051e565b6040516101709190610936565b60405180910390f35b34801561018557600080fd5b5061018e610528565b60405161019b9190610936565b60405180910390f35b3480156101b057600080fd5b506101cb60048036038101906101c69190610835565b610531565b6040516101da939291906108d8565b60405180910390f35b6101fd60048036038101906101f89190610835565b610603565b005b6000808211801561021257506001548211155b610251576040517f08c379a000000000000000000000000000000000000000000000000000000000815260040161024890610916565b60405180910390fd5b6003600083815260200190815260200160002060000160009054906101000a900473ffffffffffffffffffffffffffffffffffffffff1673ffffffffffffffffffffffffffffffffffffffff16319050919050565b60026020528060005260406000206000915090508060000160009054906101000a900473ffffffffffffffffffffffffffffffffffffffff16908060010180546102ef90610a41565b80601f016020809104026020016040519081016040528092919081815260200182805461031b90610a41565b80156103685780601f1061033d57610100808354040283529160200191610368565b820191906000526020600020905b81548152906001019060200180831161034b57829003601f168201915b5050505050908060020154905083565b6001600081548092919061038b90610aa4565b919050555060405180606001604052803373ffffffffffffffffffffffffffffffffffffffff16815260200182815260200160015481525060036000600154815260200190815260200160002060008201518160000160006101000a81548173ffffffffffffffffffffffffffffffffffffffff021916908373ffffffffffffffffffffffffffffffffffffffff160217905550602082015181600101908051906020019061043b9291906106d4565b506040820151816002015590505050565b60008081548092919061045e90610aa4565b919050555060405180606001604052803373ffffffffffffffffffffffffffffffffffffffff168152602001828152602001600054815250600260008054815260200190815260200160002060008201518160000160006101000a81548173ffffffffffffffffffffffffffffffffffffffff021916908373ffffffffffffffffffffffffffffffffffffffff160217905550602082015181600101908051906020019061050d9291906106d4565b506040820151816002015590505050565b6000600154905090565b60008054905090565b60036020528060005260406000206000915090508060000160009054906101000a900473ffffffffffffffffffffffffffffffffffffffff169080600101805461057a90610a41565b80601f01602080910402602001604051908101604052809291908181526020018280546105a690610a41565b80156105f35780601f106105c8576101008083540402835291602001916105f3565b820191906000526020600020905b8154815290600101906020018083116105d657829003601f168201915b5050505050908060020154905083565b60008111801561061557506001548111155b610654576040517f08c379a000000000000000000000000000000000000000000000000000000000815260040161064b90610916565b60405180910390fd5b6003600082815260200190815260200160002060000160009054906101000a900473ffffffffffffffffffffffffffffffffffffffff1673ffffffffffffffffffffffffffffffffffffffff166108fc349081150290604051600060405180830381858888f193505050501580156106d0573d6000803e3d6000fd5b5050565b8280546106e090610a41565b90600052602060002090601f0160209004810192826107025760008555610749565b82601f1061071b57805160ff1916838001178555610749565b82800160010185558215610749579182015b8281111561074857825182559160200191906001019061072d565b5b509050610756919061075a565b5090565b5b8082111561077357600081600090555060010161075b565b5090565b600061078a61078584610976565b610951565b9050828152602081018484840111156107a257600080fd5b6107ad8482856109ff565b509392505050565b600082601f8301126107c657600080fd5b81356107d6848260208601610777565b91505092915050565b6000813590506107ee81610bb4565b92915050565b60006020828403121561080657600080fd5b600082013567ffffffffffffffff81111561082057600080fd5b61082c848285016107b5565b91505092915050565b60006020828403121561084757600080fd5b6000610855848285016107df565b91505092915050565b610867816109c3565b82525050565b6000610878826109a7565b61088281856109b2565b9350610892818560208601610a0e565b61089b81610b7a565b840191505092915050565b60006108b36019836109b2565b91506108be82610b8b565b602082019050919050565b6108d2816109f5565b82525050565b60006060820190506108ed600083018661085e565b81810360208301526108ff818561086d565b905061090e60408301846108c9565b949350505050565b6000602082019050818103600083015261092f816108a6565b9050919050565b600060208201905061094b60008301846108c9565b92915050565b600061095b61096c565b90506109678282610a73565b919050565b6000604051905090565b600067ffffffffffffffff82111561099157610990610b4b565b5b61099a82610b7a565b9050602081019050919050565b600081519050919050565b600082825260208201905092915050565b60006109ce826109d5565b9050919050565b600073ffffffffffffffffffffffffffffffffffffffff82169050919050565b6000819050919050565b82818337600083830152505050565b60005b83811015610a2c578082015181840152602081019050610a11565b83811115610a3b576000848401525b50505050565b60006002820490506001821680610a5957607f821691505b60208210811415610a6d57610a6c610b1c565b5b50919050565b610a7c82610b7a565b810181811067ffffffffffffffff82111715610a9b57610a9a610b4b565b5b80604052505050565b6000610aaf826109f5565b91507fffffffffffffffffffffffffffffffffffffffffffffffffffffffffffffffff821415610ae257610ae1610aed565b5b600182019050919050565b7f4e487b7100000000000000000000000000000000000000000000000000000000600052601160045260246000fd5b7f4e487b7100000000000000000000000000000000000000000000000000000000600052602260045260246000fd5b7f4e487b7100000000000000000000000000000000000000000000000000000000600052604160045260246000fd5b6000601f19601f8301169050919050565b7f42656e656669636961727920646f65736e277420657869737400000000000000600082015250565b610bbd816109f5565b8114610bc857600080fd5b5056fea2646970667358221220555675d6b90b1e2eb3a8aa05df2fcd5ba8a3b754f91c0766dfdc454794028f0764736f6c63430008040033",
  "immutableReferences": {},
  "source": "// SPDX-License-Identifier: MIT\r\npragma solidity ^0.8.4;\r\n\r\ncontract Donation {\r\n\r\n    uint donor_id;\r\n    uint beneficiary_id;\r\n\r\n    function getDonors() external view returns(uint) {\r\n        return donor_id;\r\n    }\r\n\r\n    function getBeneficiaries() external view returns(uint) {\r\n        return beneficiary_id;\r\n    }\r\n\r\n    constructor() {\r\n        donor_id = 0;\r\n        beneficiary_id = 0;\r\n    }\r\n\r\n    struct Beneficiary {\r\n        address payable beneficiary_address;\r\n        string name;\r\n        uint id;\r\n    }\r\n\r\n    struct Donor {\r\n        address payable donor_address;\r\n        string name;\r\n        uint id;\r\n    }\r\n\r\n    mapping(uint => Donor) public donors;\r\n    mapping(uint => Beneficiary) public beneficiaries;\r\n\r\n    function register_donor(string memory _name) external {\r\n        donor_id++;\r\n        donors[donor_id] = Donor(\r\n            payable(msg.sender),\r\n            _name,\r\n            donor_id\r\n        );\r\n    }\r\n\r\n    function register_beneficiary(string memory _name) external {\r\n        beneficiary_id++;\r\n        beneficiaries[beneficiary_id] = Beneficiary(\r\n            payable(msg.sender),\r\n            _name,\r\n            beneficiary_id\r\n        );\r\n    }\r\n\r\n    function donate(uint _beneficiary_id) external payable {\r\n        require(_beneficiary_id > 0 && _beneficiary_id <= beneficiary_id, \"Beneficiary doesn't exist\");\r\n        beneficiaries[_beneficiary_id].beneficiary_address.transfer(msg.value);\r\n    }\r\n\r\n    function totalDonation(uint _beneficiary_id) public view returns (uint) {\r\n        require(_beneficiary_id > 0 && _beneficiary_id <= beneficiary_id, \"Beneficiary doesn't exist\");\r\n        return beneficiaries[_beneficiary_id].beneficiary_address.balance;\r\n    }\r\n}",
  "sourcePath": "G:\\Blockchain Dev\\Decentralized Donation Application\\src\\backend\\contracts\\Donation.sol",
  "compiler": {
    "name": "solc",
    "version": "0.8.4+commit.c7e474f2.Emscripten.clang"
  },
  "schemaVersion": "3.4.7",
  "updatedAt": "2022-07-19T14:35:22.818Z",
  "devdoc": {
    "kind": "dev",
    "methods": {},
    "version": 1
  },
  "userdoc": {
    "kind": "user",
    "methods": {},
    "version": 1
  }
}